:020000040800F2
:10000000301200207102000827310008BF2D0008BF
:100010002531000865140008B9350008000000000B
:10002000000000000000000000000000493100084E
:10003000DB15000800000000293100084B310008E2
:100040008B0200088B0200088B0200088B0200085C
:100050008B0200088B0200088B0200088B0200084C
:100060008B0200088B0200088B0200088B0200083C
:100070008B0200088B0200088B0200088B0200082C
:100080008B0200088B0200088B0200088B0200081C
:10009000C51400088B0200088B0200088B020008C0
:1000A0008B0200088B0200088B0200088B020008FC
:1000B000F9310008053200082D3200088B020008D3
:1000C0008B0200088B0200088B0200088B020008DC
:1000D0008B0200088B0200088B0200088B020008CC
:1000E0008B0200088B0200088B0200088B020008BC
:1000F0008B0200088B0200088B0200088B020008AC
:100100008B0200088B0200088B0200088B0200089B
:100110008B0200088B0200088B0200088B0200088B
:100120008B0200088B0200088B0200088B0200087B
:100130008B0200088B0200088B0200088B0200086B
:10014000691500088B0200088B0200088B0200086A
:100150008B0200088B0200088B0200088B0200084B
:100160008B0200088B0200088B0200088B0200083B
:100170008B0200088B0200088B02000800000000C0
:100180008B0200088B02000800F002F800F060F813
:100190000AA090E8000C82448344AAF10107DA45E2
:1001A00001D100F055F8AFF2090EBAE80F0013F0D4
:1001B000010F18BFFB1A43F001031847AC5A0000A7
:1001C000CC5A00000A444FF0000C10F8013B13F029
:1001D000070408BF10F8014B1D1108BF10F8015BA0
:1001E000641E05D010F8016B641E01F8016BF9D193
:1001F00013F0080F1EBF10F8014BAD1C0C1B09D1EA
:100200006D1E58BF01F801CBFAD505E014F8016B5B
:1002100001F8016B6D1EF9D59142D6D370470000ED
:100220000023002400250026103A28BF78C1FBD8FF
:10023000520728BF30C148BF0B6070471FB505F09B
:10024000DEFA9DE8030000F047F91FBD10B510BDB0
:1002500000F0AEF91146FFF7F1FF04F049FA00F0A3
:10026000CCF903B4FFF7F2FF03BC00F0F9F900008A
:100270000948804709480047FEE7FEE7FEE7FEE73A
:10028000FEE7FEE7FEE7FEE7FEE7FEE70448054976
:10029000054A064B70470000E93100088901000853
:1002A000300C002030120020300E0020300E0020D4
:1002B00070B5064600F0F4F8056806F10B0020F072
:1002C0000704B4429CBF002070BD2B466A68BAB1D7
:1002D0001068A04210D304F1080188423CBF506866
:1002E000586007D35168101941601168091B0160FB
:1002F00058601460101D70BD13465268002AE7D183
:100300002146284600F0D4F80028DED170BD70B533
:100310000446051F00F0C4F80068002C14BF4468B0
:1003200070BD002C18BFAC423CBF20466468F8D3B7
:1003300001680A18AA4218BF456003D12A68054619
:100340001144016028684119A1421CBF6C6070BD56
:100350006168696021680844286070BD53EA020C36
:1003600000F069802DE9F04B4FF00006002B1FBF15
:10037000B3FA83F503FA05F424FA05F65E4012BFDA
:100380001643B2FA82F502FA05F4C5F120051EBF44
:1003900022FA05FC44EA0C04203556EA044C4FEAE4
:1003A000144418BF641C4FF000084FF0000990423D
:1003B00071EB030C39D3002919BFB1FA81F701FAA7
:1003C00007F6B0FA80F700FA07F6C7F120071EBF5C
:1003D00020FA07FC46EA0C062037B6FBF4FCA7EB34
:1003E0000507103F07F01F0BCBF120060CFA0BFBA3
:1003F0002CFA06F644BFB3460026202FA4BF5E4663
:100400004FF0000B5BEA060C08BF4FF0010B19EB35
:100410000B09ABFB027C48EB0608C01B06FB02CCB9
:100420000BFB03CC71EB0C01C1E70B4602464146C6
:100430004846BDE8F08B13B54FF000004FF00001C7
:10044000AFF30080BDE81C4070474FF0000200B5DC
:10045000134694469646203922BFA0E80C50A0E8E7
:100460000C50B1F12001BFF4F7AF090728BFA0E895
:100470000C5048BF0CC05DF804EB890028BF40F861
:10048000042B08BF704748BF20F8022B11F0804FA3
:1004900018BF00F8012B7047704770477047000085
:1004A00000487047D80B002070477047704770476E
:1004B00038B504460A4600206946AFF3008000289C
:1004C00008BF38BD02460099204600F04FF80120D1
:1004D00038BD012000F064B8F8B5AFF300800546E0
:1004E00000200C46102000BF0646A819A0420DD9D6
:1004F000324669460020AFF30080070008BF00F0D5
:100500004FF80098A04218BF0546C419FFF7C8FF6E
:1005100005600746F01D20F007004619284600F048
:100520000AF8B44208BFF8BDA21B31463868BDE8DE
:10053000F84000F01BB800210160C0E901107047CD
:100540001020704710B500F00DF8006810BD10B510
:10055000044600F007F8046010BD00000048704732
:10056000D00B002000487047D00B002003464068A5
:100570008C46002818BF88423CBF03464068F8D329
:1005800018681844884207D00CF1030020F00700D7
:10059000001D411A521A0146081D0A60FFF7B7BE36
:1005A00010B500F035F8BDE8104000F02CB87047E9
:1005B0007546FFF7D3FFAE4605006946534620F067
:1005C0000700854618B020B5FFF760FEBDE8204063
:1005D0004FF000064FF000074FF000084FF0000BFF
:1005E00021F00701AC46ACE8C009ACE8C009ACE8B2
:1005F000C009ACE8C0098D4670470446AFF30080DF
:100600002046FFF72EFE002801D000F029B87047E1
:1006100010B5012805D0002103A000F027F8012023
:1006200010BD09A1F8E7000053494752544D454D0C
:100630003A204F7574206F662068656170206D6583
:100640006D6F7279000000003A2048656170206D7E
:10065000656D6F727920636F727275707465640076
:1006600001491820ABBEFEE72600020070B5054622
:100670000C460A2000E06D1C00F011F835B1287816
:100680000028F8D102E0641C00F009F814B12078C9
:100690000028F8D1BDE870400A20AFF3008008B50B
:1006A00069468DF800000320ABBE08BD08B5C0F355
:1006B0004002121D8DF8002001EBC0108DF80100E2
:1006C000684603F0EFFE08BD08B5C0F34003C00163
:1006D00000EB01109B1C10448DF8003060308DF849
:1006E0000100684603F0DEFE08BD0000F8B50520F5
:1006F0008DF8000068208DF801006946022004F0A2
:1007000037FA0F4C010A8DF80210A4F150058DF84C
:100710000300A87804F12C06002234F8101056F8D3
:10072000200001F0EFFC6946042004F08AFAA87862
:10073000012234F8101056F8200001F0E3FCF8BD57
:100740005000002030B502EB4020052912D2DFE82E
:1007500001F003122A42080030F8D42F10F8C61C0A
:1007600003E030F8D42F10F8B71C0A440280428806
:100770001144418030BD002110E000BF4418B0F8A2
:10078000D43014F8425F2B44A0F8D43000EB41037E
:10079000247833F8D85F491C2C441C8092F8F3303D
:1007A0008B42EBDC30BD002110E000BF4418B0F8F4
:1007B000D43014F85A5F2B44A0F8D43000EB410336
:1007C000247833F8E45F491C2C441C8092F8F43000
:1007D0008B42EBDC30BD002110E000BF4418B0F8C4
:1007E000D43014F87E5F2B44A0F8D43000EB4103E2
:1007F000247833F8EC5F491C2C441C8092F8F530C7
:100800005B1E8B42EADC30BD012302EB412108284C
:1008100004D2CA7C83409A43CA7470470C28FCDA1D
:100820000A7D083883409A430A757047F0B5002264
:100830000C260424062703250BE000BF01EB42230E
:10084000521C03F8F06FD2B25C709F70DC701D71A7
:100850005D718242F2D3F0BD08B500208DF8000032
:1008600028208DF80100684603F01CFE08BD00003A
:100870002DE9F84307208DF80000142000248DF89E
:100880000100A0466946022004F072F9154E010AE3
:100890008DF80210A6F150058DF80300A87805F137
:1008A0007C07002236F8101057F8200001F02AFCCF
:1008B0006946042004F0C5F9DFF82C9004F0BEF975
:1008C00028B90A344C4502D2B8F1000FF6D0A87806
:1008D000012236F8101057F8200001F013FC2046D2
:1008E000BDE8F88350000020400D03002DE9F35FC0
:1008F00000268846B2462620FFF7DAFC054600F0BF
:10090000E9F80098012708EB402404F15A0B04F1A0
:10091000480908E05B464A462946384604F0CFF8C5
:100920007F1C8246FFB298F8F400401CB842F1D810
:100930000020AA19A95D5278B61C01EB022104EB34
:100940004002401CC0B2A2F84810F6B20928F0D309
:1009500001208BE0012804D0022813D003282FD0D7
:1009600082E00021AA19AB5D5278B61C03EB02228B
:1009700004EB4103491CC9B2A3F85E20F6B2032977
:10098000F0D371E0AA19A95D5278B61C01EB0221DF
:10099000F2B2A4F86410A95C84F86610521CD1B2BB
:1009A0006A5C491CC9B284F867206A5C491CC9B2F8
:1009B00084F868206A5C491C84F86920CEB253E050
:1009C000A95DC90904F86A1FA95DC1F380116170AE
:1009D000A95DC1F34011A170A95DC1F30011E170DF
:1009E000A95DC1F3C0012171A95DC1F380016171ED
:1009F000A95DC1F34001A171A95D761C01F001015F
:100A0000E171F1B26A5CD20922726A5CC2F38012AF
:100A100062726A5CC2F34012A2726A5CC2F3001294
:100A2000E2726A5CC2F3C00222736A5CC2F38002A3
:100A300062736A5CC2F34002A2736A5C491C02F0F2
:100A40000102C9B2E2736B186A5C5B78891C02EB25
:100A50000322C9B222826B186A5C5B78891C02EBA4
:100A600003226282CEB26A3C401CC0B298F8F510F4
:100A7000491C81423FF66EAFA819A95D407801225A
:100A800000EB01262946242004F048F8C6F30901AA
:100A9000814203D04FF0FF3A012000E0002004F82B
:100AA0005A0F42466070A07084F8240084F8250034
:100AB00084F8260002210098FFF744FE42460321F5
:100AC0000098FFF73FFE2846FFF721FC5046BDE89F
:100AD000FC9F0000F8B504463C208DF80100002082
:100AE0008DF800006946022004F042F8104D010A1A
:100AF0008DF80210A5F150068DF80300B07805F1CD
:100B00002C07002235F8101057F8200001F0FAFAEF
:100B1000262322460421684604F0A0F8B07801227A
:100B200035F8101057F8200001F0ECFAF8BD00007D
:100B30005000002070B50D46064600F009F8044646
:100B40002946304600F034F8204440B270BD000021
:100B5000F0B5074615A0C1B000680D464090694643
:100B600040A804F01FF806460020694605EB47241C
:100B70000A5C2318401C9A710828F9DB0122062020
:100B800003F0CCFFBDF8061049BAC1F30901814258
:100B900001D0012000E00020A0732A460021384641
:100BA000FFF7D0FD41B03046F0BD0000000200006C
:100BB000F0B5074615A0C1B000680D4640906946E3
:100BC00040A803F0EFFF06460020694605EB4724E6
:100BD0000A5C2318401C5A750828F9DB01220620FC
:100BE00003F09CFFBDF8061049BAC1F30901814228
:100BF00001D0012000E0002060772A460421384619
:100C0000FFF7A0FD41B03046F0BD00000026000017
:100C10002DE9F047884602EB482404F1420591464D
:100C2000070004F11E0419D00820FFF741FB064617
:100C30000146384600F01EF82B462246314638461B
:100C400003F03DFF04463046FFF761FB4A460121B1
:100C50004046FFF777FDE0B2BDE8F0871A20FFF7C6
:100C600027FB064600F044F82A462146304603F0AA
:100C7000FDFEE7E7F8B500230C46012806D0022860
:100C800006D0032806D0042806D00AE0042004E099
:100C9000062002E0082000E00A208DF801008DF80F
:100CA00000306946022003F063FF104D010A8DF801
:100CB0000210A5F150068DF80300B07805F12C075D
:100CC000002235F8101057F8200001F01BFA082315
:100CD00022460421684603F0C1FFB078012235F8AE
:100CE000101057F8200001F00DFAF8BD5000002058
:100CF000F8B5044638208DF8010000208DF800007A
:100D00006946022003F034FF104D010A8DF80210ED
:100D1000A5F150068DF80300B07805F12C070022EC
:100D200035F8101057F8200001F0ECF91A2322468C
:100D30000421684603F092FFB078012235F81010C4
:100D400057F8200001F0DEF9F8BD00005000002047
:100D50002DE9F74F074600269046B1460C20FFF7D5
:100D6000A7FA044601984FF0FF3A4FF0010B08EB49
:100D7000402557B12146384600F036F9012F7DD085
:100D8000022F7CD0032F7BD010E1012698E00027B2
:100D90002146304600F028F9012E04D0022E13D04F
:100DA000032E25D073E00020E219E15D5278BF1CCC
:100DB00001EB022105EB4002401CC0B2A2F85E101C
:100DC000FFB20328F0D362E020786178062700EBB9
:100DD0000120A5F86400A07885F86600E07885F821
:100DE0006700207985F86800607985F869004EE031
:100DF0002078C00905F86A0F2078C0F38010687069
:100E00002078C0F34010A8702078C0F30010E8707C
:100E10002078C0F3C00028712078C0F3800068718A
:100E20002078C0F34000A871207800F00100E8713C
:100E30006078C00928726078C0F3801068726078AA
:100E4000C0F34010A8726078C0F30010E8726078B8
:100E5000C0F3C00028736078C0F3800068736078C6
:100E6000C0F34000A873607800F00100E873A07838
:100E7000E17800EB01202882207902E027E037E0CA
:100E800049E06179062700EB012068826A3DE0199C
:100E9000E15D4078012200EB01272146062003F0A6
:100EA0003DFEC7F30901814204D0A919D14681F85A
:100EB0007DB003E00020A91981F87D00761CF6B210
:100EC00098F8F500401CB0423FF661AF80E000208A
:100ED000A119A25D4978B61C02EB012105EB400285
:100EE000401CC0B2A2F85E10F6B20328F0D35DE059
:100EF0002078062600EB0020A5F86400A07885F88D
:100F00006600E07885F86700207985F868006079E8
:100F100085F869004AE020780626C00905F86A0FBE
:100F20002078C0F3801068702078C0F34010A8705B
:100F30002078C0F30010E8702078C0F3C00028715A
:100F40002078C0F3800068712078C0F34000A87159
:100F5000207800F00100E8716078C009287260789C
:100F6000C0F3801068726078C0F34010A872607897
:100F7000C0F30010E8726078C0F3C0002873607896
:100F8000C0F3800068736078C0F34000A873607895
:100F900000F00100E873A078E17800EB01202882DE
:100FA0002079617900EB012068826A3DA019A15D7A
:100FB0004078012200EB01262146062003F0AEFD19
:100FC000C6F30901814203D0E919D14681F87DB009
:100FD000424603210198FFF7B5FB2046FFF797F93A
:100FE0004846BDE8FE8F0000F8B50C4600210128F8
:100FF00004D0022804D0032804D008E0102002E026
:10100000122000E013208DF801008DF800106946D1
:10101000022003F0ADFD104D010A8DF80210A5F17C
:1010200050068DF80300B07805F12C07002235F842
:10103000101057F8200001F065F80823224604211B
:10104000684603F00BFEB078012235F8101057F80F
:10105000200001F057F8F8BD5000002070B50025C1
:101060002A461FE001EB45235FF00004A3F8D420DB
:10107000A3F8D62003EB4406641CA6F8D820062C5F
:10108000F8DB002403EB4406641CA6F8E420042CDF
:10109000F8DB002403EB4406641CA6F8EC20022CC9
:1010A000F8DB6D1C8542DDDB70BD2DE9FF4F0DF1D6
:1010B000540C0D9B9CE8F00FDDE9000100F047F9AE
:1010C000DDE90001039A00F053F8DDE900011A465A
:1010D00000F028F9DDE900010E9A00F05FF8DDE983
:1010E00000010F9A00F0E0F8DDE90001109A00F02D
:1010F0004AF8DDE90001119A00F0B0F8DDE90001DD
:10110000129A00F02FF9DDE90001139A00F0FFF8C0
:10111000DDE90001149A00F0D2F8DDE90001224671
:1011200000F0E2F8DDE900012A4600F0AAF8DDE966
:101130000001324600F02DF9DDE900013A4600F0E9
:101140001CF9DDE90001424600F072F8DDE900011A
:101150004A4600F078F8DDE90001524600F033F825
:10116000DDE9000104B05A46BDE8F04F00F03EB89A
:1011700001EB4021087812B140F0400001E000F09E
:10118000BF000870704701EB4021087812B140F0B1
:10119000010001E000F0FE000870704730B5002348
:1011A000012401EB4020D15C03F102050029017804
:1011B00004FA05F501D0294300E0A9435B1C017046
:1011C000022BF0DB30BD30B50023012401EB4020C1
:1011D000D15C0029817C04FA03F501D0294300E0A9
:1011E000A9435B1C8174062BF2DB30BD30B50023B4
:1011F000012401EB4020D15C0029C17C04FA03F5F5
:1012000001D0294300E0A9435B1CC174082BF2DB29
:10121000002153181B7A002B037D04FA01F501D03D
:101220002B4300E0AB43491C03750429F1DB30BDBF
:1012300001EB4021887C12B140F0800001E000F019
:101240007F008874704701EB4021887C12B140F028
:10125000400001E000F0BF008874704730B5002303
:10126000012401EB4020D15C0029417804FA03F508
:1012700001D0294300E0A9435B1C4170082BF2DB3D
:1012800030BD30B50023012401EB4020D15C0029A2
:10129000C17804FA03F501D0294300E0A9435B1C9F
:1012A000C170072BF2DB30BD01EB4021087812B191
:1012B00040F0020001E000F0FD000870704730B51A
:1012C0000023012401EB4020D15C03F10305002938
:1012D000817804FA05F501D0294300E0A9435B1C9D
:1012E0008170032BF0DB30BD30B50023012401EB0E
:1012F0004020D15C0029817804FA03F501D029430C
:1013000000E0A9435B1C8170032BF2DB30BD01EBD5
:101310004021887812B140F0400001E000F0BF00A9
:101320008870704730B50023012401EB4020D15C68
:1013300003F104050029017804FA05F501D02943D9
:1013400000E0A9435B1C0170022BF0DB30BD01EB18
:101350004021087812B140F0800001E000F07F00E9
:101360000870704701EB4021887812B140F080008E
:1013700001E000F07F008870704701EB4020120907
:10138000017C01F00F0141EA02110174110941745D
:10139000704701EB40201209C273017C01F0F0019B
:1013A00041EA122101747047012302EB4121082810
:1013B00004D2CA7C83401A43CA7470470C28FCDAF2
:1013C0000A7D083883401A430A75704708B5002023
:1013D0008DF8000029208DF80100684603F062F8BE
:1013E00008BD70B50C46054600F006F821462846B3
:1013F000BDE8704000F01AB810B50BA2C2B0126878
:10140000002340921A466C4601EB4020815CE15477
:101410005B1C521CD2B2DBB2062AF7D3214640A88D
:1014200003F090FC42B010BD0001000010B50CA20A
:10143000C2B01268002340921A466C4601EB40206D
:101440008118521CC97BE1545B1CD2B2DBB2062A64
:10145000F6D3214640A803F075FC42B010BD000051
:1014600000240000FEE7000010B58AB0002401202F
:10147000CDE906400394089004940E200594099049
:1014800000940194029469460D4800F01FF900B1E0
:10149000FEE70B4800F0F8FC00B1FEE70221084827
:1014A00000F09EF800B1FEE7054840F221313438E3
:1014B000C460846001600821016104750AB010BD38
:1014C000080A0020014800F023BA0000080A0020A2
:1014D0003EB50C4C0023A3602060C4E9033268468B
:1014E00003E0CC5CC4545B1CDBB29342F9D30549E6
:1014F00002AB6A4601F1340000F084F80028F6D10E
:101500003EBD0000D409002010B58AB00E20002492
:10151000CDE90504012002940394079008900494F7
:101520001C2009900094019469460E4800F0CEF802
:1015300000B1FEE70B4800F0A7FC00B1FEE7022176
:10154000084800F04DF800B1FEE7064840F22131AE
:101550005C38C460846001600821016104750AB0D0
:1015600010BD0000300A0020014800F0D1B9000091
:10157000300A00203EB50C4C0023A3602060C4E973
:101580000332684603E0CC5CC4545B1CDBB293427C
:10159000F9D3054902AB6A4601F15C0000F032F86C
:1015A0000028F6D13EBD0000D409002010B5044645
:1015B000B1F5007F03D9BDE8104003F02FBA4FF416
:1015C0007A70484300F094FC204600F0ADFB01F037
:1015D000F7FBBDE81040FFF747BF704772B6FEE764
:1015E00090F82020012A07D0022A05D0416A41F450
:1015F0008021416201207047006842690A434261CC
:1016000000207047F0B590F820500468A468012DC0
:1016100005D0022D03D0416A41F4802153E014F03B
:10162000406F01D1E5004BD5C4F30164022C03D90E
:10163000416A41F4000146E00125A5401D608D6826
:101640004FF4C0739DB1CE6835434E6845EAC60578
:10165000066803EB0417F5514FF4C275076805EBF4
:1016600004150E697E51097D012905D009E00E8817
:10167000CD6845EA4655EBE701684E5946F4807659
:101680004E511179D2F805504FF4C67641EA05253E
:10169000016806EB04168D511178D2F801204FF441
:1016A000C47541EA0221026805EB04155151006836
:1016B00003EB0411425842F0010242500020F0BDF9
:1016C000416A41F4001141620120F0BD10B590F86B
:1016D0002020012A07D0022A05D0416A41F4802146
:1016E0004162012010BD3B48D0F8002242F00102C7
:1016F000C0F80022D0F8002222F47C52C0F8002268
:10170000D0F800224B6A42EA0322C0F800220A7D88
:1017100002F01F0301229A40D0F81C329343C0F814
:101720001C32CB69B3B9D0F80C329343C0F80C32F9
:101730008C894B6864F31F434C6900EBC404C4F804
:1017400040320C890B6864F31F434C6900EBC404FE
:10175000C4F84432CB69012B16D1D0F80C321343B4
:10176000C0F80C320C884B6864F31F434C6900EBE3
:10177000C404C4F840320C89CB6864F31F434C693D
:1017800000EBC404C4F844328B69002BD0F8043257
:101790000ED01343C0F804320B69002BD0F814327A
:1017A00008D01343C0F81432096A012904D008E0B4
:1017B0009343EFE79343F5E7D0F81C121143C0F8C9
:1017C0001C12D0F8001221F00101C0F80012002014
:1017D00010BD0000006400402DE9F0410646406A5B
:1017E0000D4F0E4C0E4D410708D5A08F81B23046EB
:1017F000FFF7DCFEE06B4000E06306E009490842C9
:1018000006D000213046FFF7D1FEAE4202D1A764D8
:10181000BDE8F081A564FBE7300A0020000000204D
:10182000080A002000063E0030B590F82040012C48
:1018300005D0022C03D0416A41F480215DE00468A8
:10184000002955D02469A40754D04FF4D8740568F2
:1018500004EB01142D5915F00405956005682D5908
:101860004ED0ED08556005682C5904F00204D46090
:101870004FF4DA74056804EB01142D5905F00F05D7
:10188000156105682D59C5F30725956105682C5923
:10189000240C54614FF4DC72046802EB0112A4586A
:1018A0001C700468A458240A5C700468A458240CB2
:1018B0009C700468A258120EDA704FF4DE7204684D
:1018C00002EB0112A4581C710468A458240A5C712C
:1018D0000468A458240C9C710468A258120EDA7192
:1018E000006881B1016941F020010161002030BD33
:1018F000E468A8E7416A41F400114162012030BD6B
:101900006D0D1560AFE7C16841F02001C160EDE7E2
:101910002DE9F05F0546006800244669D0F8049080
:101920008768D0F80CB0D0F810A0D0F81880F10774
:1019300048D0F90714D001218160B80703D52846A3
:1019400000F0CFFA0CE0780702D54FF4006407E00E
:10195000380702D54FF4805402E0284600F0C0FA60
:10196000F80516D529684FF480708860B80503D54E
:10197000284600F0B8FA0CE0780502D544F400548B
:1019800007E0380502D544F4804402E0284600F020
:10199000A9FAF80316D529684FF480308860B80397
:1019A00003D5284600F0A1FA0CE0780302D544F4F0
:1019B000004407E0380302D544F4803402E02846AE
:1019C00000F092FA300707D55FEACB6004D52968AA
:1019D000102044F40074C86070074FF0080707D562
:1019E0005FEA0B7004D52868C760284600F0ADF99F
:1019F000B00706D52868C068800702D0284600F0E6
:101A0000A5F9700607D55FEACA6004D529681020D9
:101A100044F480640861B00607D55FEA0A7004D513
:101A200028680761284600F02BFAF00606D52868DA
:101A30000069800702D0284600F023FAB00308D5D9
:101A40005FEAC96005D5296810204860284600F083
:101A500019FAF00307D55FEA097004D528684760D2
:101A6000284600F043FA300446D55FEA497040D575
:101A7000F00504D55FEAC87001D044F00104B00558
:101A800004D55FEA887001D544F00204700504D5DE
:101A90005FEA487001D544F00404300529D518F0F8
:101AA000700F26D008F07000402815D006DC1028F2
:101AB00009D020280AD0302816D10AE050280ED0AC
:101AC000602811D10EE044F008040DE044F0100449
:101AD0000AE044F0200407E044F0400404E044F04D
:101AE000800401E044F480742868816921F0700169
:101AF0008161296804204860002C05D0686A204371
:101B000068622846FFF768FEBDE8F09F70B50400E4
:101B100003D094F8200010B104E0012070BD2046ED
:101B200000F082F82068016841F00101016000F0D6
:101B3000EFFA0546052604E000F0EAFA401B0A2801
:101B400011D820684068C007F6D02068016821F0ED
:101B50000201016000F0DCFA05460BE000F0D8FA63
:101B6000401B0A2806D9606A40F40030606284F89D
:101B70002060D2E7206840688007EFD4207E0128EB
:101B8000206801683DD021F080010160607E01285D
:101B90002068016838D021F040010160A07E012852
:101BA0002068016833D021F020010160E07E012827
:101BB000206801682ED041F010010160207F0128CB
:101BC0002068016829D021F008010160607F0128A8
:101BD0002068016824D021F004010160D4E90201E9
:101BE0000843D4E90412114308436168491E0843BD
:101BF0002168C86100206062012084F82000002074
:101C000070BD41F08001C0E741F04001C5E741F0FF
:101C10002001CAE721F01001CFE741F00801D4E725
:101C200041F00401D9E70000F0B587B00446142163
:101C30006846FEF70AFC374B3748DFF8D4E01968EE
:101C4000D4F800C0344A02250326092710300024A6
:101C5000491CF44524D11960012907D1016841F0DC
:101C600000710160006800F000700590106840F09D
:101C700001001060106802AB00F0010005904FF405
:101C8000C050CDE9000583E8D0006946234800F044
:101C900041F900220121142000F0A8FA142033E0B9
:101CA000DFF87CE0F44531D1D0F800C04CF0806C16
:101CB000C0F800C0D0F800C001290CF0806CCDF84D
:101CC00014C0196007D1016841F00071016000681B
:101CD00000F000700590106840F00200106010687D
:101CE00002AB00F0020005904FF44050CDE9000532
:101CF00083E8D00069460B4800F00CF9002201216E
:101D0000402000F073FA402000F062FA07B0F0BD06
:101D1000006400407403002030380240000002409C
:101D2000006800400004024090F820200021012AB1
:101D300008D0022A06D0416A41F480214162012183
:101D40000846704700224262FAE770472DE9F047E3
:101D50000446444B444A0021FFF766FD2568434C86
:101D600021688D4201D1012300E000234049414E0A
:101D70008A6CB24201D1012700E0002736683B405F
:101D8000B54201D1012500E00025A24201D1012286
:101D900000E0002215402B432BD108B172B6FEE7BC
:101DA00031480088C0F38025C0F34024C0F30412FA
:101DB000C0F381032AB100204E78B24203D1012240
:101DC00002E00120F8E700221043A5B100221042F2
:101DD0000FD024488CB100889FED271A00EE100A1E
:101DE000F8EE400A9FED250A10EE810A81ED110AF6
:101DF000CB61BDE8F0870122E9E71A4C2034A3B19A
:101E000004EB4322A2F2F112057815704478547065
:101E100084789470C47814715479007904F0F004D3
:101E200044EA101050710B62E3E7A1460778467848
:101E30008578C47890F804C0002200BF09EB4220E6
:101E4000521CC77306744574C47490F81480D2B2DF
:101E500008F0F00848EA1C1880F81480032AEDD333
:101E6000E1E70000B4030020EC090020080A00208C
:101E700000000020300A00200AD7A33C0000FA43EB
:101E8000704770477047000070B5044690F8200016
:101E9000012804D0606A40F40020606218E002204B
:101EA00084F820002068016821F00101016000F041
:101EB0002FF905460EE000BF00F02AF9401B0A2862
:101EC00008D9606A40F400306062052084F8200080
:101ED000012070BD20684068C007EDD1606270BD10
:101EE00070477047704770477047704770470000F1
:101EF00070B5044600F00CF90546601C02D0044899
:101F00000078044400F004F9401BA042FAD370BDED
:101F1000780300202DE9F84FDFF8BCA1002201254D
:101F20000AF1040B03264FF00F090BF1040E00BF5A
:101F30000B6805FA02F42340A34270D10F7907F031
:101F40000307012F01D0022F16D187684FEA4208FC
:101F500006FA08FC27EA0C07D1F80CC00CFA08FCBA
:101F60004CEA070CC0F808C04768A7430C79C4F3D3
:101F7000001494403C4344600C79E443A4070AD025
:101F8000C4684FEA420C06FA0CF7BC438F6807FAA4
:101F90000CF72743C7600C7904F00304022C12D11C
:101FA000D40800EB840CDCF820405707FF0E09FA38
:101FB00007F824EA0804D1F8108008FA07F848EA7C
:101FC0000408CCF8208004684FEA420C06FA0CF7AB
:101FD000BC430F7907F0030707FA0CF727430760A4
:101FE0004C6814F4403F70D03C4C276847F480475D
:101FF0002760246822F0030704F480440094384CDE
:1020000007EB040CDCF8084897074FEA177809FA41
:1020100008F7BC43334FB84202D1002724E054E014
:10202000314FB84201D101271EE0304FB84201D1F3
:10203000022719E02E4FB84201D1032714E02D4F9B
:10204000B84201D104270FE02B4FB84201D1052738
:102050000AE02A4FB84201D1062705E0284FB842CE
:1020600001D1072700E0082707FA08F72743CCF833
:102070000878DAF800405746D1F804C09C435FEA7C
:10208000CC3C00D51C433C60DBF800405F46D1F8F7
:1020900004C09C435FEA8C3C00D51C433C60DEF8E6
:1020A00000407746D1F804C09C435FEACC2C00D5B1
:1020B0001C433C60084F0C373C68D1F804C09C437B
:1020C0005FEA8C2C00D51C433C60521C102AFFF4A4
:1020D0002FAFBDE8F88F0000003C014044380240BB
:1020E00000300140000002400004024000080240AD
:1020F000000C024000100240001402400018024090
:10210000001C02400AB1816170470904FBE700002E
:102110000148806870470000780300200248816809
:102120000278114481607047780300200B4810B595
:10213000016841F400710160016841F4806101604F
:10214000016841F480710160032000F06FF8002005
:1021500000F006F800F024F8002010BD003C02401A
:1021600070B50D4D04464FF47A712878B1FBF0F04C
:102170000A490968B1FBF0F000F090FB48B9102C57
:1021800007D200222146501E00F030F800206C607B
:1021900070BD012070BD0000780300208403002082
:1021A0000A4808B5016841F480410160006800F404
:1021B000804000900548001F016841F08051016097
:1021C000006800F08050009008BD000044380240D4
:1021D000002809DB00F01F02012191404009800026
:1021E00000F1E020C0F8001170470000F0B40E4B81
:1021F0001B680C46C3F30223C3F10705042D00D965
:102200000425191D072901D2002300E0DB1E012649
:1022100006FA05F1491E214099409E40761E16405F
:102220003143F0BC01F0C9B90CED00E0064900F003
:10223000070208684FF6FF03184040EA0220034AED
:1022400010430860704700000CED00E00000FA0544
:10225000BFF34F8F05480168054A01F4E06111435F
:102260000160BFF34F8F00BFFDE700000CED00E001
:102270000400FA052DE9F0470E46050065D0DFF8A9
:102280001481D8F80000F7B200F00700B04207D27E
:1022900088F80070D8F8000000F00700B04254D170
:1022A00028683D4C810712D5400703D5206840F4CB
:1022B000E05020602878000703D5206840F4604093
:1022C00020602068A96820F0F0000843206028788A
:1022D000C0072DD0304968680839012812D002287B
:1022E00013D0032811D00968890700292DDA216845
:1022F00021F0030101432160FFF70AFF814641F20B
:10230000883A0EE009688903EFE709688901ECE77C
:10231000FFF7FEFEA0EB0901514502D90320BDE8FD
:10232000F0872068696800F00C00B0EB810FEFD1F6
:10233000D8F80010404601F00701B14207D90770F4
:10234000006800F00700B04201D00120E7E72878DC
:10235000400705D52068E96820F4E0500843206074
:102360002878000706D52068296920F4604040EAF3
:10237000C100206000F018F82168084AC1F3031179
:10238000515CC8400649086006480068FFF7E8FE4F
:102390000020C4E7003C024008380240125C0008FC
:1023A000840300207C030020154810B5006810F05D
:1023B0000C02144813D01449042A0FD0082A0ED155
:1023C0000F4C241F2268236802F03F025B0207D5EE
:1023D0002068C0F38810A0FB010106E0084610BD8C
:1023E0002168C1F38811A1FB00010023FDF7B6FFAE
:1023F0002168C1F30141491C4900B0FBF1F010BD57
:10240000083802400024F40040787D012DE9F84F9F
:1024100004006ED02078DFF84C93C007A9F10405C2
:102420004AD009F104000168C1F38101012908D0F3
:102430000068C0F3810002280AD1D9F800004002E8
:1024400006D52868800337D560680028E1D033E0DE
:102450006068B0F5803F10D0B0F5A02F286810D08C
:1024600020F480302860286820F48020286060688C
:10247000A8B1FFF74DFE06460DE0286840F4803015
:10248000F4E740F480202860F7E700BFFFF740FE44
:10249000801B642873D828688003F7D50CE0FFF709
:1024A00037FE064605E000BFFFF732FE801B6428BA
:1024B000F0D828688003F7D42078DFF8AC82800752
:1024C0004FF0000A3ED5A748001D016811F00C0F1F
:1024D00008D00068C0F3810002280BD1D9F80000B1
:1024E000400207D42868800716D5E068012800D18B
:1024F00012E033E1E068B8B10120C8F80000FFF74E
:1025000007FE064605E000BFFFF702FE801B02281B
:10251000C0D828688007F7D52868216920F0F8001E
:1025200040EAC10028600DE0C8F800A0FFF7F0FD08
:10253000064604E0FFF7ECFD801B02281FD8286840
:102540008007F7D42078000722D5864F8748616935
:10255000703771B101210160FFF7DAFD064604E032
:10256000FFF7D6FD801B022809D838688007F7D509
:102570000EE0C0F800A0FFF7CBFD064605E082E0C4
:10258000FFF7C6FD801B02287DD838688007F7D486
:102590002078400768D5DFF8CCB100270BF13C0B61
:1025A000DBF80000C0000BD4DBF8001041F08051D4
:1025B000CBF80010DBF80000012700F080500090FD
:1025C0006B4E3068C00510D4306840F480703060C5
:1025D000FFF79EFD009005E0FFF79AFD0099401A75
:1025E000022850D83068C005F6D55E4EA0686C361B
:1025F00001280FD00528306810D020F0010030608D
:10260000306820F004003060A068B8B1FFF780FDAA
:1026100000900FE0306840F00100F4E740F0040063
:102620003060F7E7FFF774FD0099411A41F28830F6
:10263000814266D830688007F4D50EE0FFF768FD68
:10264000009007E0FFF764FD0099411A41F28830DD
:10265000814256D830688007F4D42FB1DBF80010DF
:1026600021F08051CBF80010A069C8B33D49091D85
:102670000968C1F3810102294AD00228504607D0D7
:10268000C8F8600000E03CE0FFF742FD04463BE094
:102690004746C8F86000FFF73BFD064605E000BF6F
:1026A000FFF736FD801B02282BD828688001F7D45D
:1026B000D4E907010843A16A2E4A490802EB014107
:1026C000626A41EA8211084394F82C1040EA0161E1
:1026D000C9F8001001203866FFF71AFD044606E02D
:1026E0003EE000BFFFF714FD001B022809D8286850
:1026F0008001F7D534E000BFFFF70AFD001B022878
:1027000002D90320BDE8F88F28688001F4D427E0BF
:102710000128F7D0D9F80000E26900F48001914265
:102720001CD1226A00F03F01914217D147F6C071D7
:10273000626A0140B1EB821F10D1A26A4FF0FF33F1
:1027400000F4403103EB5202B1EB024F06D194F892
:102750002C1000F07060B0EB016F01D00120D1E7C8
:102760000020CFE70438024000004742800E474275
:10277000007000400000FFFF70B5040009D0606ADF
:10278000002540B125616561A56294F8510040B112
:102790000CE0012070BD6068B0F5827FF4D0E56187
:1027A000F2E784F85050204600F044F8022084F804
:1027B00051002068016821F040010160A088218952
:1027C00000F4827001F404410843A18901F400611E
:1027D0000843217C01F002010843217D01F0010141
:1027E0000843218B01F400710843217F01F0380177
:1027F000084394F8201001F080010843218D01F472
:102800000051084321680860A069042101EA1040D2
:1028100094F8241001F010010843216848602068F2
:10282000C16921F40061C1616565012084F851002E
:10283000002070BD10B586B0044614216846FDF72F
:1028400004FE13492068884220D112480021026802
:1028500042F480520260006800F4805005900D48F8
:102860001438026842F002020260006800F00200C0
:102870000590382000900220CDE90101032003904B
:102880000520049069460448FFF744FB06B010BDDC
:1028900000300140443802400004024010B5401EA0
:1028A000B0F1807F01D3012010BD4FF0E0246061C2
:1028B0000F21601700F081FE0020A0610720206139
:1028C000002010BD7047704770B590F83C20012A79
:1028D00032D0012480F83C40022280F83D20036879
:1028E0005A689D6822F070060A6832435A60134B9A
:1028F00002689A4214D0B2F1804F11D0104B9A4224
:102900000ED0104B9A420BD00F4B9A4208D00F4B6F
:102910009A4205D00E4B9A4202D00E4B9A4204D1F5
:10292000496825F080031943916080F83D400021FB
:1029300080F83C10084670BD022070BD00000140C8
:102940000004004000080040000C0040000401406A
:10295000004001400018004010B5040003D094F876
:102960003D0010B107E0012010BD002084F83C00BC
:10297000204600F01FF8022084F83D00211D206849
:1029800000F062FC012084F8460084F83E0084F8E0
:102990003F0084F8400084F8410084F8420084F845
:1029A000430084F8440084F8450084F83D0000208A
:1029B00010BD000008B501682248B1F1804F11D068
:1029C000214A91421DD1016841F002010160006875
:1029D000002200F00200009002211D20FFF706FCFB
:1029E0001D201FE0016841F0010101600068002224
:1029F00000F00100009001211C20FFF7F7FB1C20D4
:102A000010E0124A914211D1016841F004010160C5
:102A10000068002200F00400009011461E20FFF71D
:102A2000E5FB1E20BDE80840FFF7D2BB084A9142F3
:102A300007D1016841F020010160006800F020002A
:102A4000009008BD403802400004004000080040EB
:102A50000014004090F83D10012901D0012070477A
:102A6000022180F83D1000681149884214D0B0F16D
:102A7000804F11D00F4988420ED00F4988420BD0A9
:102A80000E49884208D00E49884205D00D49884237
:102A900002D00D49884204D1816801F0070106295E
:102AA00003D0016841F0010101600020704700007F
:102AB000000001400004004000080040000C0040FD
:102AC00000040140004001400018004090F83D1013
:102AD000012901D001207047022180F83D100168D2
:102AE000CA6842F00102CA6000681149884214D0E5
:102AF000B0F1804F11D00F4988420ED00E49884264
:102B00000BD00E49884208D00D49884205D00D49A6
:102B1000884202D00C49884204D1816801F0070143
:102B2000062903D0016841F00101016000207047CF
:102B3000000001400004004000080040000C00407C
:102B400000040140004001400018004001680A6A8A
:102B500041F211131A4207D10A6A9B101A4203D19B
:102B60000A6822F001020A60012180F83D1000206D
:102B7000704770B5044690F83C000025012817D036
:102B8000012684F83C60022084F83D0020688268B9
:102B900022F0770222F47F4282600868502838D001
:102BA0000DDC20284FD005DC90B3102811D14AE06D
:102BB000022070BD302846D040280AD13BE0602872
:102BC0002FD070280DD0B0F5805F03D0B0F5005F36
:102BD00012D0012584F83D60002084F83C0028468E
:102BE00070BDCB68D1E90121206800F091FB20681D
:102BF000816841F0770109E0CB68D1E901212068C3
:102C000000F086FB2068816841F480418160E1E743
:102C100019E0CA684968206800F08CFB50212068E0
:102C200006E0CA684968206800F095FB60212068CA
:102C300000F078FBCEE7CA684968206800F07AFBAC
:102C400040212068F4E7226801461046F0E770470B
:102C500070B50446006801694FF00005C943890753
:102C600015D4C168C943890711D4E91E0161012047
:102C70002077206880698007204602D0FFF7E7FFB1
:102C800004E000F098F8204600F096F825772068D8
:102C90000169C943490717D4C168C943490713D417
:102CA0006FF004010161022020772068806910F430
:102CB000407F204602D0FFF7CAFF04E000F07BF817
:102CC000204600F079F8257720680169C943090793
:102CD00016D4C168C943090712D46FF00801016115
:102CE000042020772068C0698007204602D0FFF7C3
:102CF000AEFF04E000F05FF8204600F05DF82577B5
:102D000020680169C943C90617D4C168C943C90607
:102D100013D46FF010010161082020772068C0698A
:102D200010F4407F204602D0FFF791FF04E000F04E
:102D300042F8204600F040F8257720680169C94331
:102D4000C90708D1C168C943C90704D1891E0161F7
:102D5000204600F032F820680169C943090609D409
:102D6000C168C943090605D46FF08001016120469E
:102D7000FFF7A8FD20680169C943490609D4C16865
:102D8000C943490605D46FF040010161204600F0B7
:102D900015F820680169C94389060BD4C168C94385
:102DA000890607D46FF0200101612046BDE870401C
:102DB000FFF789BD70BD7047704770477047FEE7E9
:102DC0000F4810B50D4901600C21416000214FF4FE
:102DD00000328160C0E903121201426101760122D2
:102DE00042768176C17601774177FEF78FFE002823
:102DF00003D0BDE81040FEF7F1BB10BD00640040F9
:102E0000080A00200F4810B50D4901600C214160EF
:102E100000214FF400328160C0E9031212014261C7
:102E20000176012242768176C17601774177FEF7FD
:102E30006DFE002803D0BDE81040FEF7CFBB10BDEB
:102E400000680040300A00202DE9F04F87B01421BF
:102E50006846FDF7FAFA3B480024016841F020017A
:102E60000160016801F020010591016841F08001D5
:102E70000160016801F080010591016841F00201E3
:102E80000160016801F002010591016841F0010152
:102E90000160016801F001010591016841F008013C
:102EA0000160016801F008010591016841F04001ED
:102EB00001600068DFF8908000F040004FF400757A
:102EC0000590002229464046FFF71CF9DFF87C9068
:102ED00000223A214846FFF715F9DFF874A06E008A
:102EE000002231465046FFF70DF9DFF868B06F1049
:102EF000002239465846FFF705F90095012501954E
:102F00000295694640460395FFF704F83A20009081
:102F1000CDE90154694648460394FEF7FBFF00964D
:102F2000CDE90154694650460394FEF7F3FF00973C
:102F3000CDE90154694658460394FEF7EBFF07B00C
:102F4000BDE8F08F3038024000140240000C02400F
:102F5000001802400004024010B5124C1048022133
:102F600020604FF4827060600020A060C4E903011B
:102F7000012161614902A1613821C4E90710606241
:102F8000A0620A20E0622046FFF7F6FB08B1FEF7D8
:102F900025FB2068016841F04001016010BD000080
:102FA00000300140580A002010B586B000241748B0
:102FB000009401940294039404944FF0804105948A
:102FC000016046F26F21C0E901144CF24F31C0E9B3
:102FD00003148461FFF7C0FC08B1FEF7FFFA4FF459
:102FE0008050009069460948FFF7C3FD08B1FEF71D
:102FF000F5FA049404A905480594FFF765FC002838
:1030000001D0FEF7EBFA06B010BD0000B00A0020B8
:1030100010B586B0002417480094019402940394DC
:1030200004941349059401604CF24F31C0E9011436
:103030005321C0E903148461FFF78EFC08B1FEF749
:10304000CDFA4FF48050009069460A48FFF791FD91
:1030500008B1FEF7C3FA049404A906480594FFF7E3
:1030600033FC002801D0FEF7B9FA06B010BD00000D
:1030700000040040F80A002010B586B0002417486C
:1030800000940194029403940494134905940160FC
:103090004CF24F31C0E901144FF6FF71C0E903143F
:1030A0008461FFF759FC08B1FEF798FA4FF480509D
:1030B000009069460948FFF75CFD08B1FEF78EFAFB
:1030C000049404A905480594FFF7FEFB002801D0ED
:1030D000FEF784FA06B010BD00080040400B002047
:1030E0001CB500240E4800940C4901940160532142
:1030F000C0E9011401218461C160FFF72DFC08B112
:10310000FEF76CFA0094694605480194FFF7DCFB72
:10311000002801D0FEF762FA1CBD00000014004038
:10312000880B0020FEE7FEE77047000005498A682B
:103130009207FCD5C8608868C007FCD0C868C0B2D8
:1031400070470000003001407047FEF7E7BF000005
:1031500030B593B030216846FDF777F914210CA8FB
:10316000FDF773F91E480025016841F080510160A8
:10317000006800F0805011901A48016841F48041C5
:1031800001600068022400F480401190012000904A
:10319000000401908001CDE90640192008904FF409
:1031A000A870CDE9090404200B906846FFF72EF9BA
:1031B00008B172B6FEE70CA90F2081E831004FF488
:1031C000A0500F904FF48050109005210CA8FFF7ED
:1031D00051F8002801D072B6FEE713B030BD0000F0
:1031E00040380240007000400248016841F470011C
:1031F0000160704788ED00E00148FFF729BD00003D
:10320000B00A002010B50748FFF722FD0648016C00
:10321000491C0164142903DB0021016401210170B0
:1032200010BD0000F80A00200000002010B504487E
:10323000FFF70EFD0348C16C491CC16410BD0000BE
:10324000400B002000000020F0B50268254C264D00
:10325000264E274F274B4FF0804CA04209D06045A7
:1032600007D0A84205D0B04203D0B84201D098425E
:1032700004D122F0700E4A6842EA0E02A0421BD02E
:10328000604519D0A84217D0B04215D0B84213D02B
:10329000984211D0184DA8420ED0184DA8420BD01C
:1032A000174DA84208D0174DA84205D0164DA84288
:1032B00002D0164DA84203D122F44075CA682A43B1
:1032C0004D6922F080022A4302608A68C2620A685D
:1032D0008262A04201D0984201D1096901630121B3
:1032E0004161F0BD000001400004004000080040C2
:1032F000000C004000040140004001400044014037
:103300000048014000180040001C00400020004020
:1033100010B5846842EA032224F47F440A4322431E
:10332000826010BD826822F070020A4342F00701F9
:103330008160704710B5036A046A24F001040462D6
:10334000846924F0F00444EA021423F00A020A43D8
:103350008461026210BD10B5036A23F0100303629A
:103360008369046A23F4704343EA023224F0A00321
:1033700043EA01118261016210BD00002DE9F047AE
:10338000224C01231A4660781E46A1789B0203EB6B
:103390004222401CDFF8789002EB0010491C002507
:1033A00000EB8108A9F1400701F072F808EB060074
:1033B000A063A278002109EB422300BF01EB850244
:1033C00003EB4202D28BC2EB021C07F811C007EBE1
:1033D000410C120A491CC9B28CF801200429EDD312
:1033E0000C4AA16C91420A494FF00802A1F1400138
:1033F00002D1FEF76DF801E0FEF7BCF8761C6D1CFB
:10340000EDB2B6B2032DCFD3BDE8F08700000020A7
:10341000D4030020080A002070B5174B9C785D7813
:10342000641C01F035F84FF4806000EB051000EBF0
:103430008400986311499A7801EB42224039547D07
:103440000C70947D4C70D47D8C70547ECC70927EC8
:1034500012010A710A4A996C914208494FF0080218
:10346000A1F1400103D1BDE87040FEF731B8BDE8DD
:103470007040FEF77FB8000000000020D403002059
:10348000080A00202DE9F041444DAB786C785B1CB4
:1034900000F0FEFF4FF4C06000EB041000EB830669
:1034A000701CA8633E4FA9789FED3E1A07EB41229E
:1034B000A7F14004D2ED440ADFF8F48080EE810ADF
:1034C000DFED390ABCEEC00A10EE101A2170090AAD
:1034D000617092ED781A81EE200ABCEEC00A10EEFF
:1034E000101AA170090AE17092ED791A81EE200A92
:1034F0009FED2E1ABCEEC00A10EE101A2171090AB7
:103500006171D2ED7F0A80EE810ABCEEC00A10EE36
:10351000101AA171090AE171AA6C214642454FF0C7
:10352000080202D1FDF7D4FF01E0FEF723F800F016
:10353000AFFFB01CA863A9789FED1E0A07EB4121DD
:1035400091F8352191F8343102EB0322227091F881
:10355000372191F8363102EB03226270D1ED4B0A2C
:1035600030EE800ABCEEC00A10EE101AA170090AF3
:10357000E17010EE101A2171090A6171AA6C0849F4
:1035800042454FF00802A1F1400103D1BDE8F041EE
:10359000FDF79EBFBDE8F041FDF7ECBF0000002045
:1035A000D40300206F12833B0AD7A33B17B7D1384F
:1035B000080A002000002042FEE70907090E002843
:1035C00004DB00F1E02080F80014704700F00F00E9
:1035D00000F1E02080F8141D70470000000000009A
:1035E00070B5D94B00242DED020B2DED108BDDE9CC
:1035F0001010984205DA20F000429A4201D809D111
:1036000041B19DED100BBDEC108B02B0BDE87040D8
:1036100000F05EBAB0F5801F26DA11430BD0002807
:1036200013DA0120FCF793FFBDEC108B02B0BDE86C
:10363000704000F059BA0220FCF789FF00F030FA20
:1036400051EC100B01F0C6FB9EE06FF035049FEDCE
:10365000C00B53EC102B9DED100B51EC100B01F037
:1036600069FECDE91001084604EB2051C0F31304B4
:10367000B948A1F2FF31204400F4801080F07F624D
:1036800082F04052224301EB20559FEDB50B119281
:1036900053EC102B9DED100B51EC100B01F054FF6F
:1036A00041EC180BA01CC0F313009FEDAFDB9FEDA6
:1036B000B0EBB14E7E4403286CD296ED000B51EC7A
:1036C000180B53EC102B01F0CFFD1DD1002D01BFC5
:1036D00096ED000BBDEC108B02B070BD284601F0DA
:1036E000FFFD41EC180B53EC1D2B01F023FE41ECC8
:1036F000190B53EC1E2B51EC180B01F01BFE53EC75
:10370000192B01F0A5FB3FE09FED9D0B51EC180B31
:1037100053EC102B01F00EFE9FED9B1B53EC112B75
:1037200001F006FF41EC190B53EC182B51EC180B70
:1037300001F000FE53EC192B01F0FCFD41EC190BDC
:10374000002D04BF53EC192B51EC180B1AD028464E
:1037500001F0C6FD41EC1A0B53EC1D2B01F0EAFD04
:1037600053EC192B01F0E4FE53EC182B01F0ECFEA6
:1037700041EC180B53EC1E2B51EC1A0B01F0DAFD47
:1037800053EC182B01F0E0FEBDEC108B02B041ECC5
:10379000100B70BD9FED7E0B51EC180B53EC102BF2
:1037A00001F056FB41EC100B51EC180B53EC102BB5
:1037B00001F002FC41EC190B284601F091FD41ECAF
:1037C0001B0B53EC192B51EC190B01F0B3FD41EC21
:1037D0001A0B714853EC1A2B261851EC1A0B01F0F6
:1037E000A9FD41EC1F0B6D48C4F1510404F5D72429
:1037F000B0EE4F0AF0EE6F0A0321784400F0D2F8E1
:1038000053EC1F2B51EC100B01F094FD41EC1C0B01
:103810006348B0EE4F0AF0EE6F0A0421784400F0DE
:10382000C1F853EC1A2B51EC100B01F083FD34431B
:1038300053EC1C2B01F00CFB41EC1C0B002C4CDD61
:103840009FED510B51EC180B53EC102B01F072FD56
:1038500053EC182B01F06EFD41EC1A0B55B353ECF1
:103860001D2B51EC1B0B01F065FD41EC1D0B53ECC6
:103870001C2B51EC1A0B01F0EBFA53EC192B01F055
:1038800059FD53EC1D2B01F0E3FA53EC1A2B01F018
:103890004FFE53EC182B01F057FE41EC180B53EC84
:1038A0001E2B51EC1B0B01F045FD53EC182B01F0C6
:1038B0004BFE69E753EC1C2B51EC1A0B01F0C8FAD4
:1038C00053EC192B01F036FD53EC1A2B01F030FEAE
:1038D00053EC182B01F02CFE56E735B353EC1D2B9F
:1038E00051EC1B0B01F026FD41EC1A0B53EC1C2B89
:1038F00051EC180B01F028FE53EC192B01F01AFDC6
:1039000053EC1A2B01F020FE53EC182B01F01CFE97
:1039100041EC180B53EC1E2B51EC1B0B01F00AFD74
:1039200053EC182B01F010FE2EE753EC1C2B51EC3E
:10393000180B01F009FE53EC192B01F0FBFC53ECC2
:10394000182B01F0F5FD1FE70000F07F00000000DC
:103950000000000000005043645F09000000000008
:10396000000000000000F03F763C7935EF39EA3D79
:103970000000E0FE422EE63FA82500000000000007
:10398000555555555555D53F000000000000E03F06
:10399000000000000000004086EBF9FF2A24000030
:1039A0002024000070B504462DED028B4D1E00EB67
:1039B000C500B0EE408AF0EE608A90ED000B35F065
:1039C000060017D053EC182B51EC100B01F0B2FC91
:1039D00041EC100B6D1E04EBC50090ED001B51EC8B
:1039E000100B53EC112B01F033FA41EC100B35F0B6
:1039F0000600E7D1022D36D0042D1CD0062D1CBFA9
:103A0000BDEC028B70BD53EC182B51EC100B01F088
:103A100091FC94ED0A1B53EC112B01F019FA53ECB5
:103A2000182B01F087FC94ED081B53EC112B01F0CF
:103A30000FFA41EC100B53EC182B51EC100B01F06A
:103A400079FC94ED061B53EC112B01F001FA53ECB9
:103A5000182B01F06FFC94ED040B53EC102B01F0CC
:103A6000F7F941EC100B53EC182B51EC100B01F053
:103A700061FC94ED021B53EC112B01F0E9F953ECBE
:103A8000182B01F057FC94ED001B53EC112B01F0A7
:103A9000DFF9BDEC028B41EC100B70BD00000000A3
:103AA0009FED070B10B553EC102B9FED070B51EC5E
:103AB000100B01F081FA41EC100B10BD000000006A
:103AC0000000000000000000000000000000F03FC7
:103AD00010B553EC102B51EC100B01F0B9F941EC7F
:103AE000100B10BD000000009FED050B10B553EC4E
:103AF000102B51EC100B01F05FFA41EC100B10BDD4
:103B000000000000000000002DE9F05F2DED0C8B9F
:103B100001F0C4F800210220FCF7E8FDFCF7A8FE44
:103B2000FE4EFD4A0220B178FDF712F9FA4DB07849
:103B30004FF0000A05EB402191F86620FF2A7CD067
:103B4000DFF8DCB34FF00109C1F80891DBF8002081
:103B5000526A00EE102AF26CB8EE400A00EE902A8B
:103B6000B8EE601ADFEDEF0A21EE201ADFEDEE0A63
:103B700061EE201ADFEDED0A81EEA01ADFEDE90A11
:103B800020EE200ADFEDE90AC0EE201A31EE210A0C
:103B900081ED3F0AD1ED400A30EE600A81ED410A25
:103BA0002946FDF71EFC2946B078FCF7C3FFFCF759
:103BB00053FE00210220FCF799FDFCF759FE00217D
:103BC0000220FCF773FDFCF753FE00221146022091
:103BD000FCF77AFDFCF74CFEFDF7F8FB2946B078C0
:103BE000FCF784FE2A46B1780020FDF711F8B17881
:103BF000284600EB412434F85E0F01F088FB9FED6E
:103C0000CCDB53EC1D2B01F095FB9FEDCB1B53EC54
:103C1000112B01F08FFB01F0E9F8C4F8B2006088C5
:103C200001F075FB53EC1D2B01F084FB9FEDC41BD1
:103C300053EC112B01F0C0F900E0DFE19FEDC21B56
:103C400053EC112B01F080FC01F0D0F8C4F8BA005D
:103C5000207A84F8D600607A84F8D700A07A84F8B5
:103C6000D800607E84F8D90034F8140C00EE100AF5
:103C7000B8EE400A9FEDB68AF0EE088A20EE081AE8
:103C800000EE100AF0EE680AB8EE400A40EE480A6C
:103C900081EE200A10EE100A01F040FD41EC100BFD
:103CA000FFF79EFC9FEDABCB51EC100B53EC1C2BA4
:103CB00001F082F99FEDA99B53EC192B01F0C8F894
:103CC00041EC100B53EC102B9FEDA6AB51EC1A0BF3
:103CD00001F072F99FEDA5BB53EC1B2B01F034FCF6
:103CE00001F084F8B278294601EB4221F0EE680A2F
:103CF000C1F81C01B1F84C0000EE100AB8EE400A01
:103D000020EE081A00EE100AB8EE400A40EE480A0B
:103D100081EE200A10EE100A01F000FD41EC100BBC
:103D2000FFF75EFC9FED931B51EC100B53EC112B36
:103D300001F042F953EC192B01F08AF841EC100B19
:103D400051EC1A0B53EC102B01F036F953EC1B2BF2
:103D500001F0FAFB01F04AF8B278294601EB422162
:103D6000F0EE680AC1F82001B1F84E0000EE100A2A
:103D7000B8EE400A20EE081A00EE100AB8EE400A2B
:103D800040EE480A81EE200A10EE100A01F0C6FC4F
:103D900041EC100BFFF724FC53EC1C2B51EC100BE7
:103DA00001F00AF953EC192B01F052F841EC100B19
:103DB00051EC1A0B53EC102B01F0FEF853EC1B2BBB
:103DC00001F0C2FB01F012F8B278294601EB422162
:103DD000F0EE680AC1F82401B1F8500000EE100AB4
:103DE000B8EE400A20EE081A00EE100AB8EE400ABB
:103DF00040EE480A81EE200A10EE100A01F08EFC17
:103E000041EC100BFFF7ECFB53EC1C2B51EC100BAF
:103E100001F0D2F853EC192B01F01AF841EC100B19
:103E200051EC1A0B53EC102B01F0C6F853EC1B2B82
:103E300001F08AFB00F0DAFFB278294601EB42215B
:103E4000F0EE680AC1F82801B1F8520000EE100A3D
:103E5000B8EE400A20EE081A00EE100AB8EE400A4A
:103E600040EE480A81EE200A10EE100A01F056FCDE
:103E700041EC100BFFF7B4FB53EC1C2B51EC100B77
:103E800001F09AF853EC192B00F0E2FF41EC100B13
:103E900051EC1A0B53EC102B01F08EF853EC1B2B4A
:103EA00001F052FB00F0A2FFB278294601EB42215B
:103EB000C1F82C01B1F8540000EE100AB8EE400A27
:103EC00060EE080A00EE100AB8EE400A40EE488A9A
:103ED00080EEA80A10EE100A01F020FC41EC100B55
:103EE000FFF77EFB53EC1C2B51EC100B01F064F838
:103EF00053EC192B00F0ACFF41EC100B51EC1A0BFA
:103F000053EC102B01F058F853EC1B2B01F01CFB69
:103F100000F06CFF2A4631E0D403002000000020AE
:103F2000400B00200050434700008047A037A04CC2
:103F30002D431CEBE2361A3F000000000000344025
:103F4000B81E85EB51B87E3F000000000040704075
:103F500017B7D1380000000000D6AA40000000E0EA
:103F6000E1796B3F000000000000F03F00000060BE
:103F70006612714000000000C0C5E040B178002426
:103F800002EB412205EB4127C2F8300107EB440068
:103F9000C08B01F0BCF953EC1D2B01F0CBF900F004
:103FA00025FF07EB8401641CA4B2C1F838010C2C76
:103FB000ECD30027A8460025B17809FA05F008EBF4
:103FC0004122D319C0B293F866300340834205EB17
:103FD000C70000EBD0704FEA600021D1EB0702EB85
:103FE000800311D0D3F86821521CC3F86821736A8A
:103FF0009A421BDBFC4AFDF7D7F917E0C1F808A18C
:10400000BDEC0C8BBDE8F09FD3F89821521CC3F88F
:104010009821736A9A4209DBF34AFCF7F5FB05E045
:10402000E90702EB800016D0C0F868A10024B1783F
:10403000726A08EB412000EB8403D3F898C19445E1
:1040400017DAD3F86831934213DA082C06DA09FA42
:1040500004F2407E07E0C0F898A1E7E7A4F1080366
:10406000807E09FA03F28243DF4A20465FD0FCF7E4
:10407000CBFB641C0C2CDADB6D1CEDB2082D9BD342
:104080007F1C032F97DB00F009FED749B078FDF7BE
:10409000A8F9D549B078FCF74DFDB078002308EBBE
:1040A00040204146D0ED760AF5EEC00AF1EE10FA56
:1040B00000D2012390ED410A9FEDCC1AC0EE011A07
:1040C00081EE810A90ED771A70EE810ABEEE001A39
:1040D00060EE810AB2EE081A20EE202AD0ED7D0AA9
:1040E00042EE010AC0ED7D0AD0ED440A90ED451A7A
:1040F000D0E9722070EEC10A02EB800080EE801AD7
:1041000080ED001AB47801EB4420D0F8CC516D1C3E
:10411000C0F8CC51B26A954201D1C0E973A99FEDB4
:10412000B40A002501EB4427F0EE400A0BE0FDF74E
:104130003BF99EE7D7F8C8C10CEB850C6D1C9CEDD4
:10414000001A71EE200A94469542F3DB01EE10CA84
:10415000F8EEC11A80EEA11AF0EEC10A96ED0B1A24
:10416000F4EEC10AF1EE10FA05D2D0F8D421521CB7
:10417000C0F8D42101E0C0F8D4A19E4D90ED441ABE
:10418000F7EE000AD5ED001AB4EEE11AF1EE10FADE
:1041900006D9D5ED012AB4EEE21AF1EE10FA6FDB82
:1041A000D0ED762A96ED0D3AF0EEE22AF4EEC32A2F
:1041B000F1EE10FA64D2D0F8D021012A60D1D0F803
:1041C000D421376BBA425BDBDFF828C233270CF10E
:1041D000200C9CED002AB4EEC21AF1EE10FA02D2C5
:1041E00080ED780A37E0834A203292ED322AB4EE2D
:1041F000C21AF1EE10FA02DDC0ED780A2BE008EBEE
:104200004421012291ED441A0CEB820494ED002A22
:10421000B4EEC21AF1EE10FA1AD8764CEC3404EB74
:1042200082040CEB8202D4ED002A14ED012A92EDF7
:10423000003A72EEC23A52ED012A33EE624A31EE92
:10424000621A83EE843A03EE012A81ED782A02E0B5
:10425000521CBA42D8DBD0F8F011022231B19FEDE6
:10426000662A012914D0022932D05DE090ED441A6B
:10427000B4EEE11AF1EE10FA03D8C0F8F02102E032
:1042800046E0C0F8F09190ED781A80ED7E1A1CE0BF
:1042900090ED441AB4EEE11AF1EE10FA44D8D0EDE4
:1042A000781A90ED7E1AD0ED7D2A31EEC11A82EE99
:1042B000813AB0EEC31A80ED791AC1EE022AC0ED40
:1042C0007B2AC0ED7E1AC0F8F02180ED7D0A2BE03C
:1042D00090ED441AD5ED011AB4EEE11AF1EE10FAA0
:1042E00022DB90ED781AD0ED7E1AD0ED7D2A71EEAA
:1042F000611A82EEA13AF0EEC31AC0ED791AC1EE4E
:10430000822AC0ED7B2A80ED7E1AC0F8F091DCE7AE
:1043100090ED791AC2EE011A90ED7A1A31EE611A17
:1043200080ED781A80ED7A1A344D90ED461AD5ED6D
:10433000001AB4EEE11AF1EE10FA06D3D5ED061A22
:10434000B4EEE11AF1EE10FA02DD80ED7F0A84E0AE
:10435000072205245FF0020105EB810797ED000AB3
:10436000B4EEC01AF1EE10FA73D8244F022290ED89
:10437000780A1C3707EB820CDCED001AB4EEE10A78
:10438000F1EE10FA60D805EB8104002B54ED011A10
:1043900001EB810331EE612A94ED001A07EB8204F0
:1043A00071EE611A82EE211A54ED011A30EE612A83
:1043B00094ED000A70EE611A82EE210A20D00F49B6
:1043C000303101EB830101EB820151ED061A11ED51
:1043D000013A21EE002A61EE821A30EEC02A62EE26
:1043E000012A42EE831A1EE0D4030020000070422E
:1043F000000000007400002000800A432C0200200E
:10440000224921EE002A01EB830101EB820151EDEB
:10441000061A51ED012A61EE821A30EEC02A22EE10
:10442000013A43EE221A70EEC10A51ED052A20EE40
:10443000800A40EE221A20EE820AD1ED000A40EEF8
:10444000201AC0ED7F1A08E0521CA24292DB04E061
:10445000FFE7491C9142FFF67FAF90ED3F0A80EDE8
:10446000400A90ED760A80ED770A90ED440A80EDDF
:10447000450A90ED780A80ED7A0AFFF703F8FEF717
:104480007DFFDBF80000406AF06CB9E5E80200202F
:104490000020034902460A54401C2028FBDB7047D9
:1044A00094030020F8B501788DF8001040788DF85D
:1044B00001006946022000F05BFB0F4C010A8DF8F9
:1044C0000210A4F150058DF80300A87804F12C0621
:1044D000002234F8101056F82000FDF713FE69464C
:1044E000042000F0AEFBA878012234F8101056F832
:1044F0002000FDF707FEF8BD5000002070B54FF614
:10450000FA75281A84B20848FEF7A4FA064801682A
:104510004C62006801E0416A8CB2AC42FBD3BDE85A
:1045200070400148FEF712BB880B00202DE9F041D6
:1045300000F0B4FB00210220FCF7D8F8FCF798F952
:10454000604C5F4A0220A178FCF702FC5C4DA07829
:10455000002605EB402090F86610FF295FD001216E
:10456000C0F8081158490968496A00EE101AE16C50
:10457000B8EE401A00EE101AB8EE400ADFED530A0A
:1045800020EE200ADFED521A20EE212A9FED510A7B
:1045900061EE200AC2EE001A80EE801A31EE810A26
:1045A00080ED3F0A00F07AFB2946A078FCF719FF5E
:1045B0002946A078FCF7BEFA00F070FB002102202B
:1045C000FCF794F8FCF754F92A46A1780020FCF790
:1045D000BFFBA77805EB4724B4F85E0000F097FE18
:1045E0009FED3D1B53EC112B00F0A4FE9FED3C1BF7
:1045F00053EC112B00F09EFE00F0F8FB314900EE69
:10460000100A943184ED440AD1ED000A3322B4EE4D
:10461000E00AF1EE10FA06D29FED330A0EE0C0F880
:104620000861BDE8F08127489430D0ED320AB4EE3D
:10463000E00AF1EE10FA04DDB7EE000A84ED780A24
:104640002AE005EB4723012093ED440A01EB8005A6
:10465000D5ED000AB4EEE00AF1EE10FA19D8234ABB
:1046600002EB800201EB800092ED001A52ED010A8C
:10467000D0ED001A31EE602A10ED011A71EEC12A58
:1046800030EE410AC2EE221A41EE800AC3ED780AEA
:1046900002E0401C9042D9DB94ED3F0A84ED400AD1
:1046A00094ED440A84ED450A94ED760A84ED770A88
:1046B00094ED780A84ED7A0AC4F80C61B1E7000041
:1046C000D403002000000020400B0020005043478E
:1046D00000008047A037A04C2D431CEBE2361A3F68
:1046E00000000000000034400000000060010020D5
:1046F0002DED028B90B0FDF719FDFEF729FDFEF7B9
:10470000A3FBFEF729FCFEF7EBFCFEF759FBFEF7D7
:104710004BFCFEF77DFCFEF7AFFCFEF773FB33238B
:10472000B6490120B2EE080A01EB8002401CD2ED2E
:10473000000A984260EE800AC2ED000AF4DBAF483E
:10474000AF4D203805F18C06D0ED000A60EE800AEE
:10475000C0ED000AD0ED010A60EE800AC0ED010A4A
:10476000012000EB8002012106EB820405EB8203AD
:1047700003EB8102D2ED000A60EE800AC2ED000A6E
:1047800004EB8102491CD2ED000A052960EE800A83
:10479000C2ED000AECD3401C0728E2D300279FEDAE
:1047A000998ADFF85882984DA8F1940800200646AF
:1047B00005EB47242654401C0628FBDB84ED3F8A8A
:1047C00084ED408A84ED418A0120C4E942600020E2
:1047D00004EB8001401CC1F86861C1F898610C28A5
:1047E000F6DBD8F828008000FBF762FDE4E97206EA
:1047F000A660E66084ED048A84ED058A84ED068A6D
:104800009FED820A7F1C84ED070A84ED088AB7EECB
:10481000000A84ED090AA66284ED0B8A84ED0C8AF5
:1048200084ED0D8A032FC1DB774B744A98F8090099
:104830000DF1300C4C3B383A98F80A108CE80F0018
:10484000DFF8B8A1B8F81220AAF1320AB8F810308F
:10485000AAF14B0BCDE90A32CDE908BAAAF14E060E
:1048600098F8080098F8071006F15507049707967E
:10487000CDE905104446A6F10708A2796379A6F1AF
:104880000909CDE90232CDE900982379E2785E4941
:104890000020FCF70AFC5C4B607A0DF1300C4C3BBD
:1048A00006F14802A17A8CE80F00628A238ACDE9DA
:1048B0000A32CDE908BA207AE17904970796CDE962
:1048C0000510A2796379CDE90232CDE90098237908
:1048D000E2784D490120FCF7E8FB4B4B607A0DF183
:1048E000300C4C3B06F14802A17A8CE80F00628A3A
:1048F000238ACDE90A32CDE908BA207AE179049712
:104900000796CDE90510A2796379CDE90232CDE9A8
:1049100000982379E2783C490220FCF7C6FB3A492B
:104920000320FCF79BFB38490320FBF77FFF06F1D0
:1049300042000122818832308068FDF7E3FB642069
:10494000FFF7DCFD3248FEF7C1F83248FEF7BEF84B
:104950000027E7643048A064FCF786FDFCF7D4FD2F
:104960007E1E206A002808D013DDA0F10100A0708F
:1049700000F05AF800F0B6F90AE0A77000F054F819
:1049800000F0B0F9A078401CC0B2A0700328F5D3A5
:104990002662E069002813D0E3DDA0F10100A070D9
:1049A00000F042F8A07894ED110A05EB402080ED6C
:1049B000760AD0F80C01E8B1FFF7B8FDE661D0E760
:1049C00084F8027000F030F8A07894ED110A05EB3D
:1049D000402080ED760AD0F80C0140B1FFF7A6FD2B
:1049E000A078401CC0B2A0700328EBD3E6E7FFF725
:1049F0008BF8F5E7FFF788F8E0E700009400002067
:104A00005C02002000000000D403002000800A4364
:104A1000400B0020B00A0020300A0020012080F363
:104A20001388FDF715BC000070B50F4800F156055E
:104A300000F1880482782988206872B1012A0CD09C
:104A40000122FDF75FFB698801226068FDF75AFBD0
:104A5000BDE870406420FFF751BDFDF753FB698846
:104A600000226068F2E7000000000020F0B50E466A
:104A700000251446014628462A460F180B5C7F780D
:104A8000801C03EB072326F81230521CD2B2C0B2AE
:104A90000C2AF2D308440122008846BA182000F0FC
:104AA0003DF8C6F30901814202D00125284600E005
:104AB000002020706070A070E0702846F0BDF0B556
:104AC000064600251F462C46284606EB460C01EB01
:104AD000040E0B5D9EF801E0A41C03EB0E230CEB0F
:104AE000000E02EB4E0E401CC0B22EF8063CE4B2A3
:104AF0000328ECD308190122008844BA062000F0EC
:104B00000DF8C4F30902B919824202D001252846E2
:104B100000E0002001F8010C2846F0BD70B510231C
:104B20000024124E0AE00D5D641C85EA9305EDB287
:104B3000E4B236F8155085EA03239BB28442F2D3DF
:104B400022B1085C00F0FC0083EA80038F2106207C
:104B50004FF6FF729C0502EA430300D54B40401E0E
:104B600010F0FF00F6D1C3F3090070BD125A00081F
:104B700030B5102300220A4D0AE08C5C521C84EAF6
:104B8000D314E4B2D2B235F8144084EA03239BB2C2
:104B90008242F2D34FF6FF7000EA430030BD0000BE
:104BA000125800082DE9F041C2B00C4601788DF88A
:104BB000001140788DF80101002540A90220FFF77F
:104BC000D7FF1D4E010A8DF80211A6F150078DF88E
:104BD0000301B87806F12C08002236F8101058F8B6
:104BE0002000FDF78FFA08236A46042140A800F050
:104BF00035F8B878012236F8101058F82000FDF783
:104C000081FA002069460A5C2254401CC0B2082880
:104C1000F9D3E079A179012200EB01262146062093
:104C2000FFF77CFFC6F30901814201D04FF0FF3549
:104C300042B02846BDE8F08150000020FF20FEF77A
:104C400075BA70B50E460546002404E0305DFEF7E7
:104C50006DFA641CE4B2AC42F8D370BD2DE9F047A4
:104C6000FF261D4691460F468046002406E000BF01
:104C700018F80400FEF75AFA641CE4B2BC42F7D3F9
:104C8000002406E03046FEF751FA09F80400641CDF
:104C9000E4B2AC42F6D3BDE8F08700002DE9F04164
:104CA0000F4C0022A4F1500504F12C06A87834F82A
:104CB000101056F82000FDF725FA4FF4FA77384621
:104CC000FFF71CFCA878012234F8101056F82000D9
:104CD000FDF718FA3846BDE8F041FFF70FBC0000B9
:104CE0005000002010B5FFF7D9FF00210220FBF78C
:104CF000FDFCFBF7BDFD124C104A0220A178FCF729
:104D000027F80E48A17800EB412090F86610FF29A3
:104D100010D00121C0F80811FFF7C0FF0749A078A3
:104D2000FCF75FFB0549A078FBF704FFBDE81040E6
:104D3000FEF772BB0021C0F8081110BDD40300209B
:104D4000000000202DE9F04105460E460C20FBF73F
:104D5000AFFA0446287820706878607021460220F7
:104D6000FFF706FF0146000AA0700425E17000204D
:104D7000315C61556D1C401CC0B2EDB20628F7D302
:104D8000002231460620FFF7C9FE010A615561196C
:104D90000F4D4870A5F1500605F12C07B0780022A0
:104DA00035F8101057F82000FDF7ACF921460C201B
:104DB000FFF747FFB078012235F8101057F82000B0
:104DC000FDF7A0F92046BDE8F041FBF7A0BA0000CE
:104DD0005000002081F00041704780F00040704793
:104DE00021F00041704720F00040704721F0004260
:104DF000A2F16052B2F5801F01F0004328BFD2F14A
:104E00007F6C0BD95FEA001C43EAC20242EB507090
:104E100018BF704728BF20F001007047B2F5801F0F
:104E2000BCBF184670474FEA410C1CF5001F02D268
:104E3000084600F0E9BC70B500F026FB00000089D0
:104E4000FFF7F6BF4FF00040A0F58000704700006C
:104E500010B591EA030F48BF83F0004300F17C8353
:104E6000841A71EB030C05D2121943EB0C03001BDF
:104E700061EB0C01DFF824E14FEA1154A4EB135C61
:104E80001EEA430F18BF9EEA445F73D023EA0E0365
:104E9000DCF1200E21EA045143F4801332D322FACC
:104EA0000CFE10EB0E0023FA0CFE41EB0E01CCF1D0
:104EB000200E03FA0EFE10EB0E0051F10001B1F5C9
:104EC000801FCCF1200E32D201EB045112FA0EF207
:104ED000BDE8104058BF7047401C38BF5FEA42022F
:104EE00018BF7047002814BF20F0010041F10001F5
:104EF0004FEA410313F5001F38BF7047A1F1C041CD
:104F000000F010BB012A43EB0302ACF1200CDCF1F2
:104F10001F0E32BF4FF0000E23FA0CF310EB03000C
:104F200041EB0451B4EB115FD0D0A1EB045101F57A
:104F3000801149085FEA300001EB04510ED350F1B3
:104F4000000038BF12FA0EFE08D1BDE81040C9E7D4
:104F5000401C38BF5FEA4202CAD1C3E7BDE8104037
:104F60004FEA410313F5001F38BF7047A1F1C0415C
:104F700000F0D8BA9EEA445F08D011EA5E0FBDE89F
:104F8000104004BF01F0004100207047BDE8104010
:104F900070B500F079FA00BF64FBBE3E0000E0FF90
:104FA000491058BFC1F140415B1058BFC3F14043A5
:104FB0008B42EFF3008070472DE9C04130B4DFF839
:104FC000A0C23CEA111418BF3CEA131400F0EC80B4
:104FD00081EA03051CEA111444EAD57418BF1CEADF
:104FE000131500F0C780A4EB05044FF0004545EA17
:104FF000C12145EAC32341EA505143EA525304F127
:105000007F74994204F500344FEAC0204FEAC2226F
:1050100008BF904200F09C804FEA13650FF24016E3
:10502000765D4FEA134506FB05F7C7F1807706FB6F
:1050300007F74FEAD737A7FB03687642C8F58038F1
:10504000A7FB06CE38BFA8F1010807FB08E64FF022
:10505000000EA6FB028CE6FB03CEDCF1000CCEF1C9
:10506000004E38BFAEF1010EA6FB0C584FF0000702
:105070004FF00005E6FB0E87A1FB08C6A0FB07CE9C
:1050800016EB0E0645F10005E1FB076515F1E04E54
:105090007EBFA4F580345FEA46066D4116F18007B5
:1050A00045F100054FEA17274FEA066647EA05670C
:1050B000A6F1DE46B6F1805F4FEA15251FD93846C6
:1050C00024F0010C05EBC471BCF1FE6F01EB0C1177
:1050D00002D8F0BCBDE8008124425CBF01F5801E0F
:1050E0009EEAC47F02D4F0BCBDE80081244238D4DB
:1050F000F0BCA1F1C041BDE8004100F013BA4FEA95
:10510000D22242EA43524FEAD323A7FB02864FEA58
:10511000D02040EA415007FB03661EEA0E0F4FEA1B
:10512000D12105FB026658BFA6EB0056B6EB005630
:105130004FEA520E4EEAC37E18EB0E0E56EB530E9C
:10514000BDD518EB02085E417F1C55F10005B6E79E
:105150004FF480154FF000074FF000064FF00008A5
:10516000ADE7F0BC4FF0000001F1C04101F000419B
:10517000BDE8008111EA0C1F0CEA131500D00CE009
:1051800013EA0C1F00F025804FF00000F0BC81EA0C
:10519000030101F00041BDE80081F0BCBDE8004121
:1051A00081EA030100F0BEB9F0BCBDE8004170B572
:1051B00000F06AF9097EFC3E00F007B881EA0301BD
:1051C0004FF0000001F00041704781EA030100F058
:1051D000A9B9F0BCBDE800414FF00000214970477B
:1051E000FFFDFBF9F7F5F4F2F0EEEDEBE9E8E6E4AC
:1051F000E3E1E0DEDDDBDAD8D7D5D4D3D1D0CFCD33
:10520000CCCBCAC8C7C6C5C4C2C1C0BFBEBDBCBB6B
:10521000BAB9B8B7B6B5B4B3B2B1B0AFAEADACAB66
:10522000AAA9A8A8A7A6A5A4A3A3A2A1A09F9F9E40
:105230009D9C9C9B9A9999989797969595949393F2
:10524000929191908F8F8E8E8D8C8C8B8B8A898989
:10525000888887878685858484838382828181800C
:105260000000FF070000F87F51EA030C17D41CF57B
:10527000801F58BFBCF5801F00F10680994218BFFF
:10528000704708BF9042704707D711F5801F58BF7D
:1052900013F5801F19D499427047894270471CF555
:1052A000801F08D5BCF5801FF7D58B4218BF70470B
:1052B00008BF824270474FF4001C1CEB410F38BFFF
:1052C0001CEB430F01D28B42704770B500F0DCF845
:1052D000922449004FF000514FF08053FFF760BE19
:1052E00010F0004248BF4042B0FA80F310FA03F1D8
:1052F0000AD0C3F11D0303F580634FEA415002EB6E
:10530000035202EBD12170474FF000007047B0FA12
:1053100080F310FA03F10AD0C3F11D0303F5806393
:105320004FEA41504FEA035202EBD12170474FF050
:1053300000007047DFF848C170B51CEA111E1EBF9F
:105340001CEA13159EEA0C0F95EA0C0F00F06F8013
:1053500081EA030423EA4C134EEAD47E21EA4C117D
:1053600041F4801143F48013AE44A1FB024CA0FB36
:105370000365AEF17F7E361955EB0C05A1FB034C9E
:105380004CF10003A0FB021C16EB0C06654153F127
:105390000003094218BF46F0010613F4007F0BD149
:1053A0004FEA03314FEA0530340341EA155140EA30
:1053B00016506FF003020AE04FEAC3214FEAC520FE
:1053C000F40241EA555140EA56506FF0020202EBF6
:1053D0002E4201EB025585EACE710AD05FEA440CF9
:1053E00018BF24F0004450F1000041F1000120EA10
:1053F000D47040F2FE7C624500D270BDA84214BF5A
:105400004FF080444FF04044002E08BF0024BEF10E
:10541000806FA8BFA1F1C041BDE8704080F28280DA
:105420004FF0000001F1C04101F0004170479EEAD9
:105430000C0F0CEA131518BF95EA0C0F06D04FF0AD
:10544000000081EA030E0EF0004170BD00F01CF870
:105450008900013E00F007B800F009B84FEA430C9C
:105460005FEA5C5C08D081EA030100F05BB84FEAB8
:10547000410C5FEA5C5CF6D14FF0000001497047D7
:105480000000FF070000F87F0EF1020E2EF0030E61
:105490005EF8046B364205D4012A43EB030515F58B
:1054A000001F12D8012841EB010C1CF5001F0CD87D
:1054B0000ED14FEAD17C15F5001F0CEB4C0C0CF112
:1054C000020C08BF4CEBD37C04E04FF0080C01E069
:1054D0004FEAD37C0CEB4C0526FA05F606F00706DE
:1054E000B6F1040C06D20EEB860CBDE870404CF011
:1054F000010C6047DFE80CF0090B02024FF000419D
:105500004FF00000A1F5002170BD1946104601289A
:1055100051EB010418BFD4F5001484BF002001F042
:10552000004170BD0808A0F500114FEA3101704735
:1055300091EA030F10B581F000413FF591AC83F083
:10554000004300F009B8000010B591EA030F48BF0E
:1055500083F000433FF584AC841A71EB030C07D24F
:1055600012198CF0004C43EB0C03001B61EB0C0197
:10557000DFF8A4E14FEA1154A4EB135C1EEA430FD9
:1055800018BF9EEA445F00F0B08023EA6E035242E7
:1055900021EA0451C3EB6E0338BF5B1EDCF1200E21
:1055A00025D322FA0CFE10EB0E0043FA0CFE41EB61
:1055B0000E01CCF1200E03FA0EFE10EB0E0051F19D
:1055C0000001CCF1200E29D412FA0EF201EB0451A5
:1055D000BDE8104058BF7047401C1CBFB2F1004FDF
:1055E000704700280CBF491C20F00100704712EBE7
:1055F000020E43EB030218BF4FF0010E4EEA4202C7
:10560000ACF1200CDCF11E0E54D943FA0CFE10EB69
:105610000E0051F1FF31CCF11E0ED5D50EF1010E69
:1056200012FA0EFE404141EB010101EB445C5FEADE
:105630005C5C10D910EBDE7001EB045138BFBEF199
:10564000004FBDE8104018BF704700280CBF491C30
:1056500020F00100704730D24FEAD42C11F5001130
:1056600024F400641BD0B1FA81F20B3AA41AA41EF0
:10567000D2F12003914030FA03F31943904001EB3B
:10568000CC71002C01EB0451BDE81040A8BF70475D
:1056900001F1C0414FF0000001F000417047B0FA45
:1056A00080F310FA03F100D110BDE41A173C48054D
:1056B000C90AE4E701EB045110BD491001EB0451A4
:1056C000BDE810404FEA300002E04FF000017047A3
:1056D0004A0008BF0042F8D0B2F5001F28BF70474B
:1056E00001F000414FF0000070479EEA445F07D090
:1056F00011EA5E0FBDE8104004BF00210020704792
:10570000BDE8104070B5FFF7BFFE00BF40DFF63EBA
:1057100083F00041104670470000E0FF43004FEA6D
:10572000D30C4FEA3C0C43401FBF40070CF16051C3
:1057300013F0FE4F70471CF0006F03D100200CF0F7
:10574000004170470CF0004343EA507010B540EA46
:10575000CC0000F00EF800BF000000924FEA0001FC
:10576000FFF7E0BE4FF000414FF00000A1F500212F
:1057700070470EF1020E2EF0030E5EF8044B244229
:1057800004D44FEA4102B2F17F4F11D84FEA4003EF
:10579000B3F17F4F0CD80ED14FEAD07CB2F17F4FDE
:1057A0000CEB4C0C0CF1020C08BF4CEBD17C04E070
:1057B0004FF0080C01E04FEAD17C0CEB4C0324FACB
:1057C00003F404F00704B4F1040C06D20EEB840CCD
:1057D000BDE810404CF0010C6047DFE80CF0070812
:1057E00002024FF00040A0F5800010BD08464200C4
:1057F00018BFD2F1807288BF00F0004010BD4FF09A
:105800004070E1EE100A7047FF2141EAD050C00518
:105810007047000099C5ABCE320BCFD8561D641629
:10582000FDD307F49E31AC3A35FFC82C51E963E251
:10583000FA2797AD0E683C63A5A65875C1B0F3BBB7
:105840006A7E9059099C3B97A2525F81C644F44FEF
:105850006D8A2E5BB79E85951C50E18378464A4D34
:10586000D38829AFB06A82611BA4E6777FB24DB9B5
:10587000D47CB9F6203312388BFD762EEFEBDDE0C9
:105880004425BE0227C715CC8C0971DAE81FDA144B
:1058900043D1C5F35C366E3DF7F80A2B93EEA1E5D4
:1058A0003820C2075BC269C9F00C0DDF941AA6113B
:1058B0003FD4525ECB9BF99060559D860443364899
:1058C000AF8D55AACC6FFE6467A19A7203B731BC45
:1058D000A879EBA8726D4066D9A32470BDB58FBEC0
:1058E000167BEC5C75994792DE572384BA41884A4F
:1058F000118F7C05E5C0D7CB4E0EB3DD2A181813E7
:1059000081D67BF1E234D03F49FAB4292DEC1FE770
:10591000862213A28A67B86C21A9DC7A45BF77B4C6
:10592000EE7114568D93BF98265DDB8E424B70400E
:10593000E985840F1DCA2FC1B6044BD7D212E019D6
:1059400079DC83FB1A3E2835B1F04C23D5E6E7ED30
:105950007E283DF9A43C96370FF2F2216BE459EF13
:10596000C02A3A0DA3C891C30806F5D56C105E1B7A
:10597000C7DEAA543391019A985F658CFC49CE42E8
:105980005787ADA03465066E9FAB6278FBBDC9B684
:105990005073D6514F947D9FE45A1989804CB24779
:1059A0002B82D1A548607A6BE3AE1E7D87B8B5B374
:1059B0002C7641FCD839EA3273F78E2417E125EAB8
:1059C000BC2F4608DFCDEDC6740389D01015221E0A
:1059D000BBDBF80A61CF53C4CA0137D2AE179C1C97
:1059E00005D9FFFE663B5430CDF53026A9E39BE890
:1059F000022D6FA7F662C4695DACA07F39BA0BB106
:105A000092746853F196C39D5A58A78B3E4E0C452D
:105A1000958000008F001E0191013C02B302220319
:105A2000AD03F7007800E9016601CB024402D5031B
:105A30005A03EE016101F0007F00D2035D03CC0246
:105A4000430219019601070088002503AA033B02BF
:105A5000B402DC035303C2024D02E0016F01FE00F9
:105A600071002B03A4033502BA0217019801090043
:105A700086003202BD022C03A3030E008100100138
:105A80009F01C5024A02DB035403F9007600E701D7
:105A900068013703B8032902A6020B01840115002F
:105AA0009A00C0034F03DE025102FC017301E200C1
:105AB0006D00D9025602C7034803E5006A00FB01E6
:105AC00074012E02A1023003BF0312009D000C01DD
:105AD0008301EB006400F5017A01D7025802C90383
